{
  "contractName": "MoraribleToken",
  "abi": [
    {
      "inputs": [],
      "stateMutability": "nonpayable",
      "type": "constructor"
    },
    {
      "anonymous": false,
      "inputs": [
        {
          "indexed": true,
          "internalType": "address",
          "name": "owner",
          "type": "address"
        },
        {
          "indexed": true,
          "internalType": "address",
          "name": "approved",
          "type": "address"
        },
        {
          "indexed": true,
          "internalType": "uint256",
          "name": "tokenId",
          "type": "uint256"
        }
      ],
      "name": "Approval",
      "type": "event"
    },
    {
      "anonymous": false,
      "inputs": [
        {
          "indexed": true,
          "internalType": "address",
          "name": "owner",
          "type": "address"
        },
        {
          "indexed": true,
          "internalType": "address",
          "name": "operator",
          "type": "address"
        },
        {
          "indexed": false,
          "internalType": "bool",
          "name": "approved",
          "type": "bool"
        }
      ],
      "name": "ApprovalForAll",
      "type": "event"
    },
    {
      "anonymous": false,
      "inputs": [
        {
          "indexed": true,
          "internalType": "address",
          "name": "from",
          "type": "address"
        },
        {
          "indexed": true,
          "internalType": "address",
          "name": "to",
          "type": "address"
        },
        {
          "indexed": true,
          "internalType": "uint256",
          "name": "tokenId",
          "type": "uint256"
        }
      ],
      "name": "Transfer",
      "type": "event"
    },
    {
      "inputs": [
        {
          "internalType": "uint256",
          "name": "",
          "type": "uint256"
        }
      ],
      "name": "Items",
      "outputs": [
        {
          "internalType": "uint256",
          "name": "id",
          "type": "uint256"
        },
        {
          "internalType": "address",
          "name": "creator",
          "type": "address"
        },
        {
          "internalType": "string",
          "name": "uri",
          "type": "string"
        }
      ],
      "stateMutability": "view",
      "type": "function",
      "constant": true
    },
    {
      "inputs": [
        {
          "internalType": "address",
          "name": "to",
          "type": "address"
        },
        {
          "internalType": "uint256",
          "name": "tokenId",
          "type": "uint256"
        }
      ],
      "name": "approve",
      "outputs": [],
      "stateMutability": "nonpayable",
      "type": "function"
    },
    {
      "inputs": [
        {
          "internalType": "address",
          "name": "owner",
          "type": "address"
        }
      ],
      "name": "balanceOf",
      "outputs": [
        {
          "internalType": "uint256",
          "name": "",
          "type": "uint256"
        }
      ],
      "stateMutability": "view",
      "type": "function",
      "constant": true
    },
    {
      "inputs": [
        {
          "internalType": "uint256",
          "name": "tokenId",
          "type": "uint256"
        }
      ],
      "name": "getApproved",
      "outputs": [
        {
          "internalType": "address",
          "name": "",
          "type": "address"
        }
      ],
      "stateMutability": "view",
      "type": "function",
      "constant": true
    },
    {
      "inputs": [
        {
          "internalType": "address",
          "name": "owner",
          "type": "address"
        },
        {
          "internalType": "address",
          "name": "operator",
          "type": "address"
        }
      ],
      "name": "isApprovedForAll",
      "outputs": [
        {
          "internalType": "bool",
          "name": "",
          "type": "bool"
        }
      ],
      "stateMutability": "view",
      "type": "function",
      "constant": true
    },
    {
      "inputs": [],
      "name": "name",
      "outputs": [
        {
          "internalType": "string",
          "name": "",
          "type": "string"
        }
      ],
      "stateMutability": "view",
      "type": "function",
      "constant": true
    },
    {
      "inputs": [
        {
          "internalType": "uint256",
          "name": "tokenId",
          "type": "uint256"
        }
      ],
      "name": "ownerOf",
      "outputs": [
        {
          "internalType": "address",
          "name": "",
          "type": "address"
        }
      ],
      "stateMutability": "view",
      "type": "function",
      "constant": true
    },
    {
      "inputs": [
        {
          "internalType": "address",
          "name": "from",
          "type": "address"
        },
        {
          "internalType": "address",
          "name": "to",
          "type": "address"
        },
        {
          "internalType": "uint256",
          "name": "tokenId",
          "type": "uint256"
        }
      ],
      "name": "safeTransferFrom",
      "outputs": [],
      "stateMutability": "nonpayable",
      "type": "function"
    },
    {
      "inputs": [
        {
          "internalType": "address",
          "name": "from",
          "type": "address"
        },
        {
          "internalType": "address",
          "name": "to",
          "type": "address"
        },
        {
          "internalType": "uint256",
          "name": "tokenId",
          "type": "uint256"
        },
        {
          "internalType": "bytes",
          "name": "_data",
          "type": "bytes"
        }
      ],
      "name": "safeTransferFrom",
      "outputs": [],
      "stateMutability": "nonpayable",
      "type": "function"
    },
    {
      "inputs": [
        {
          "internalType": "address",
          "name": "operator",
          "type": "address"
        },
        {
          "internalType": "bool",
          "name": "approved",
          "type": "bool"
        }
      ],
      "name": "setApprovalForAll",
      "outputs": [],
      "stateMutability": "nonpayable",
      "type": "function"
    },
    {
      "inputs": [
        {
          "internalType": "bytes4",
          "name": "interfaceId",
          "type": "bytes4"
        }
      ],
      "name": "supportsInterface",
      "outputs": [
        {
          "internalType": "bool",
          "name": "",
          "type": "bool"
        }
      ],
      "stateMutability": "view",
      "type": "function",
      "constant": true
    },
    {
      "inputs": [],
      "name": "symbol",
      "outputs": [
        {
          "internalType": "string",
          "name": "",
          "type": "string"
        }
      ],
      "stateMutability": "view",
      "type": "function",
      "constant": true
    },
    {
      "inputs": [
        {
          "internalType": "address",
          "name": "from",
          "type": "address"
        },
        {
          "internalType": "address",
          "name": "to",
          "type": "address"
        },
        {
          "internalType": "uint256",
          "name": "tokenId",
          "type": "uint256"
        }
      ],
      "name": "transferFrom",
      "outputs": [],
      "stateMutability": "nonpayable",
      "type": "function"
    },
    {
      "inputs": [
        {
          "internalType": "string",
          "name": "uri",
          "type": "string"
        }
      ],
      "name": "createItem",
      "outputs": [
        {
          "internalType": "uint256",
          "name": "",
          "type": "uint256"
        }
      ],
      "stateMutability": "nonpayable",
      "type": "function"
    },
    {
      "inputs": [
        {
          "internalType": "uint256",
          "name": "tokenId",
          "type": "uint256"
        }
      ],
      "name": "tokenURI",
      "outputs": [
        {
          "internalType": "string",
          "name": "",
          "type": "string"
        }
      ],
      "stateMutability": "view",
      "type": "function",
      "constant": true
    }
  ],
  "bytecode": "0x60806040523480156200001157600080fd5b506040518060400160405280600e81526020017f4d6f72617269626c65546f6b656e0000000000000000000000000000000000008152506040518060400160405280600481526020017f4d4f524100000000000000000000000000000000000000000000000000000000815250816000908051906020019062000096929190620000b8565b508060019080519060200190620000af929190620000b8565b505050620001cc565b828054620000c69062000197565b90600052602060002090601f016020900481019282620000ea576000855562000136565b82601f106200010557805160ff191683800117855562000136565b8280016001018555821562000136579182015b828111156200013557825182559160200191906001019062000118565b5b50905062000145919062000149565b5090565b5b80821115620001645760008160009055506001016200014a565b5090565b7f4e487b7100000000000000000000000000000000000000000000000000000000600052602260045260246000fd5b60006002820490506001821680620001b057607f821691505b602082108103620001c657620001c562000168565b5b50919050565b61289580620001dc6000396000f3fe608060405234801561001057600080fd5b50600436106100f55760003560e01c806342842e0e11610097578063a22cb46511610066578063a22cb465146102ac578063b88d4fde146102c8578063c87b56dd146102e4578063e985e9c514610314576100f5565b806342842e0e146102125780636352211e1461022e57806370a082311461025e57806395d89b411461028e576100f5565b8063095ea7b3116100d3578063095ea7b31461017857806317b47cc41461019457806323b872dd146101c65780633d54eebb146101e2576100f5565b806301ffc9a7146100fa57806306fdde031461012a578063081812fc14610148575b600080fd5b610114600480360381019061010f919061185a565b610344565b60405161012191906118a2565b60405180910390f35b610132610426565b60405161013f9190611956565b60405180910390f35b610162600480360381019061015d91906119ae565b6104b8565b60405161016f9190611a1c565b60405180910390f35b610192600480360381019061018d9190611a63565b61053d565b005b6101ae60048036038101906101a991906119ae565b610654565b6040516101bd93929190611ab2565b60405180910390f35b6101e060048036038101906101db9190611af0565b610726565b005b6101fc60048036038101906101f79190611c78565b610786565b6040516102099190611cc1565b60405180910390f35b61022c60048036038101906102279190611af0565b610868565b005b610248600480360381019061024391906119ae565b610888565b6040516102559190611a1c565b60405180910390f35b61027860048036038101906102739190611cdc565b610939565b6040516102859190611cc1565b60405180910390f35b6102966109f0565b6040516102a39190611956565b60405180910390f35b6102c660048036038101906102c19190611d35565b610a82565b005b6102e260048036038101906102dd9190611e16565b610a98565b005b6102fe60048036038101906102f991906119ae565b610afa565b60405161030b9190611956565b60405180910390f35b61032e60048036038101906103299190611e99565b610bea565b60405161033b91906118a2565b60405180910390f35b60007f80ac58cd000000000000000000000000000000000000000000000000000000007bffffffffffffffffffffffffffffffffffffffffffffffffffffffff1916827bffffffffffffffffffffffffffffffffffffffffffffffffffffffff1916148061040f57507f5b5e139f000000000000000000000000000000000000000000000000000000007bffffffffffffffffffffffffffffffffffffffffffffffffffffffff1916827bffffffffffffffffffffffffffffffffffffffffffffffffffffffff1916145b8061041f575061041e82610c7e565b5b9050919050565b60606000805461043590611f08565b80601f016020809104026020016040519081016040528092919081815260200182805461046190611f08565b80156104ae5780601f10610483576101008083540402835291602001916104ae565b820191906000526020600020905b81548152906001019060200180831161049157829003601f168201915b5050505050905090565b60006104c382610ce8565b610502576040517f08c379a00000000000000000000000000000000000000000000000000000000081526004016104f990611fab565b60405180910390fd5b6004600083815260200190815260200160002060009054906101000a900473ffffffffffffffffffffffffffffffffffffffff169050919050565b600061054882610888565b90508073ffffffffffffffffffffffffffffffffffffffff168373ffffffffffffffffffffffffffffffffffffffff16036105b8576040517f08c379a00000000000000000000000000000000000000000000000000000000081526004016105af9061203d565b60405180910390fd5b8073ffffffffffffffffffffffffffffffffffffffff166105d7610d54565b73ffffffffffffffffffffffffffffffffffffffff161480610606575061060581610600610d54565b610bea565b5b610645576040517f08c379a000000000000000000000000000000000000000000000000000000000815260040161063c906120cf565b60405180910390fd5b61064f8383610d5c565b505050565b60076020528060005260406000206000915090508060000154908060010160009054906101000a900473ffffffffffffffffffffffffffffffffffffffff16908060020180546106a390611f08565b80601f01602080910402602001604051908101604052809291908181526020018280546106cf90611f08565b801561071c5780601f106106f15761010080835404028352916020019161071c565b820191906000526020600020905b8154815290600101906020018083116106ff57829003601f168201915b5050505050905083565b610737610731610d54565b82610e15565b610776576040517f08c379a000000000000000000000000000000000000000000000000000000000815260040161076d90612161565b60405180910390fd5b610781838383610ef3565b505050565b60006107926006611159565b600061079e600661116f565b90506107aa338261117d565b60405180606001604052808281526020013373ffffffffffffffffffffffffffffffffffffffff16815260200184815250600760008381526020019081526020016000206000820151816000015560208201518160010160006101000a81548173ffffffffffffffffffffffffffffffffffffffff021916908373ffffffffffffffffffffffffffffffffffffffff160217905550604082015181600201908051906020019061085b92919061174b565b5090505080915050919050565b61088383838360405180602001604052806000815250610a98565b505050565b6000806002600084815260200190815260200160002060009054906101000a900473ffffffffffffffffffffffffffffffffffffffff169050600073ffffffffffffffffffffffffffffffffffffffff168173ffffffffffffffffffffffffffffffffffffffff1603610930576040517f08c379a0000000000000000000000000000000000000000000000000000000008152600401610927906121f3565b60405180910390fd5b80915050919050565b60008073ffffffffffffffffffffffffffffffffffffffff168273ffffffffffffffffffffffffffffffffffffffff16036109a9576040517f08c379a00000000000000000000000000000000000000000000000000000000081526004016109a090612285565b60405180910390fd5b600360008373ffffffffffffffffffffffffffffffffffffffff1673ffffffffffffffffffffffffffffffffffffffff168152602001908152602001600020549050919050565b6060600180546109ff90611f08565b80601f0160208091040260200160405190810160405280929190818152602001828054610a2b90611f08565b8015610a785780601f10610a4d57610100808354040283529160200191610a78565b820191906000526020600020905b815481529060010190602001808311610a5b57829003601f168201915b5050505050905090565b610a94610a8d610d54565b838361119b565b5050565b610aa9610aa3610d54565b83610e15565b610ae8576040517f08c379a0000000000000000000000000000000000000000000000000000000008152600401610adf90612161565b60405180910390fd5b610af484848484611307565b50505050565b6060610b0582610ce8565b610b44576040517f08c379a0000000000000000000000000000000000000000000000000000000008152600401610b3b90612317565b60405180910390fd5b600760008381526020019081526020016000206002018054610b6590611f08565b80601f0160208091040260200160405190810160405280929190818152602001828054610b9190611f08565b8015610bde5780601f10610bb357610100808354040283529160200191610bde565b820191906000526020600020905b815481529060010190602001808311610bc157829003601f168201915b50505050509050919050565b6000600560008473ffffffffffffffffffffffffffffffffffffffff1673ffffffffffffffffffffffffffffffffffffffff16815260200190815260200160002060008373ffffffffffffffffffffffffffffffffffffffff1673ffffffffffffffffffffffffffffffffffffffff16815260200190815260200160002060009054906101000a900460ff16905092915050565b60007f01ffc9a7000000000000000000000000000000000000000000000000000000007bffffffffffffffffffffffffffffffffffffffffffffffffffffffff1916827bffffffffffffffffffffffffffffffffffffffffffffffffffffffff1916149050919050565b60008073ffffffffffffffffffffffffffffffffffffffff166002600084815260200190815260200160002060009054906101000a900473ffffffffffffffffffffffffffffffffffffffff1673ffffffffffffffffffffffffffffffffffffffff1614159050919050565b600033905090565b816004600083815260200190815260200160002060006101000a81548173ffffffffffffffffffffffffffffffffffffffff021916908373ffffffffffffffffffffffffffffffffffffffff160217905550808273ffffffffffffffffffffffffffffffffffffffff16610dcf83610888565b73ffffffffffffffffffffffffffffffffffffffff167f8c5be1e5ebec7d5bd14f71427d1e84f3dd0314c0f7b2291e5b200ac8c7c3b92560405160405180910390a45050565b6000610e2082610ce8565b610e5f576040517f08c379a0000000000000000000000000000000000000000000000000000000008152600401610e56906123a9565b60405180910390fd5b6000610e6a83610888565b90508073ffffffffffffffffffffffffffffffffffffffff168473ffffffffffffffffffffffffffffffffffffffff161480610ed957508373ffffffffffffffffffffffffffffffffffffffff16610ec1846104b8565b73ffffffffffffffffffffffffffffffffffffffff16145b80610eea5750610ee98185610bea565b5b91505092915050565b8273ffffffffffffffffffffffffffffffffffffffff16610f1382610888565b73ffffffffffffffffffffffffffffffffffffffff1614610f69576040517f08c379a0000000000000000000000000000000000000000000000000000000008152600401610f609061243b565b60405180910390fd5b600073ffffffffffffffffffffffffffffffffffffffff168273ffffffffffffffffffffffffffffffffffffffff1603610fd8576040517f08c379a0000000000000000000000000000000000000000000000000000000008152600401610fcf906124cd565b60405180910390fd5b610fe3838383611363565b610fee600082610d5c565b6001600360008573ffffffffffffffffffffffffffffffffffffffff1673ffffffffffffffffffffffffffffffffffffffff168152602001908152602001600020600082825461103e919061251c565b925050819055506001600360008473ffffffffffffffffffffffffffffffffffffffff1673ffffffffffffffffffffffffffffffffffffffff16815260200190815260200160002060008282546110959190612550565b92505081905550816002600083815260200190815260200160002060006101000a81548173ffffffffffffffffffffffffffffffffffffffff021916908373ffffffffffffffffffffffffffffffffffffffff160217905550808273ffffffffffffffffffffffffffffffffffffffff168473ffffffffffffffffffffffffffffffffffffffff167fddf252ad1be2c89b69c2b068fc378daa952ba7f163c4a11628f55a4df523b3ef60405160405180910390a4611154838383611368565b505050565b6001816000016000828254019250508190555050565b600081600001549050919050565b61119782826040518060200160405280600081525061136d565b5050565b8173ffffffffffffffffffffffffffffffffffffffff168373ffffffffffffffffffffffffffffffffffffffff1603611209576040517f08c379a0000000000000000000000000000000000000000000000000000000008152600401611200906125f2565b60405180910390fd5b80600560008573ffffffffffffffffffffffffffffffffffffffff1673ffffffffffffffffffffffffffffffffffffffff16815260200190815260200160002060008473ffffffffffffffffffffffffffffffffffffffff1673ffffffffffffffffffffffffffffffffffffffff16815260200190815260200160002060006101000a81548160ff0219169083151502179055508173ffffffffffffffffffffffffffffffffffffffff168373ffffffffffffffffffffffffffffffffffffffff167f17307eab39ab6107e8899845ad3d59bd9653f200f220920489ca2b5937696c31836040516112fa91906118a2565b60405180910390a3505050565b611312848484610ef3565b61131e848484846113c8565b61135d576040517f08c379a000000000000000000000000000000000000000000000000000000000815260040161135490612684565b60405180910390fd5b50505050565b505050565b505050565b611377838361154f565b61138460008484846113c8565b6113c3576040517f08c379a00000000000000000000000000000000000000000000000000000000081526004016113ba90612684565b60405180910390fd5b505050565b60006113e98473ffffffffffffffffffffffffffffffffffffffff16611728565b15611542578373ffffffffffffffffffffffffffffffffffffffff1663150b7a02611412610d54565b8786866040518563ffffffff1660e01b815260040161143494939291906126f9565b6020604051808303816000875af192505050801561147057506040513d601f19601f8201168201806040525081019061146d919061275a565b60015b6114f2573d80600081146114a0576040519150601f19603f3d011682016040523d82523d6000602084013e6114a5565b606091505b5060008151036114ea576040517f08c379a00000000000000000000000000000000000000000000000000000000081526004016114e190612684565b60405180910390fd5b805181602001fd5b63150b7a0260e01b7bffffffffffffffffffffffffffffffffffffffffffffffffffffffff1916817bffffffffffffffffffffffffffffffffffffffffffffffffffffffff191614915050611547565b600190505b949350505050565b600073ffffffffffffffffffffffffffffffffffffffff168273ffffffffffffffffffffffffffffffffffffffff16036115be576040517f08c379a00000000000000000000000000000000000000000000000000000000081526004016115b5906127d3565b60405180910390fd5b6115c781610ce8565b15611607576040517f08c379a00000000000000000000000000000000000000000000000000000000081526004016115fe9061283f565b60405180910390fd5b61161360008383611363565b6001600360008473ffffffffffffffffffffffffffffffffffffffff1673ffffffffffffffffffffffffffffffffffffffff16815260200190815260200160002060008282546116639190612550565b92505081905550816002600083815260200190815260200160002060006101000a81548173ffffffffffffffffffffffffffffffffffffffff021916908373ffffffffffffffffffffffffffffffffffffffff160217905550808273ffffffffffffffffffffffffffffffffffffffff16600073ffffffffffffffffffffffffffffffffffffffff167fddf252ad1be2c89b69c2b068fc378daa952ba7f163c4a11628f55a4df523b3ef60405160405180910390a461172460008383611368565b5050565b6000808273ffffffffffffffffffffffffffffffffffffffff163b119050919050565b82805461175790611f08565b90600052602060002090601f01602090048101928261177957600085556117c0565b82601f1061179257805160ff19168380011785556117c0565b828001600101855582156117c0579182015b828111156117bf5782518255916020019190600101906117a4565b5b5090506117cd91906117d1565b5090565b5b808211156117ea5760008160009055506001016117d2565b5090565b6000604051905090565b600080fd5b600080fd5b60007fffffffff0000000000000000000000000000000000000000000000000000000082169050919050565b61183781611802565b811461184257600080fd5b50565b6000813590506118548161182e565b92915050565b6000602082840312156118705761186f6117f8565b5b600061187e84828501611845565b91505092915050565b60008115159050919050565b61189c81611887565b82525050565b60006020820190506118b76000830184611893565b92915050565b600081519050919050565b600082825260208201905092915050565b60005b838110156118f75780820151818401526020810190506118dc565b83811115611906576000848401525b50505050565b6000601f19601f8301169050919050565b6000611928826118bd565b61193281856118c8565b93506119428185602086016118d9565b61194b8161190c565b840191505092915050565b60006020820190508181036000830152611970818461191d565b905092915050565b6000819050919050565b61198b81611978565b811461199657600080fd5b50565b6000813590506119a881611982565b92915050565b6000602082840312156119c4576119c36117f8565b5b60006119d284828501611999565b91505092915050565b600073ffffffffffffffffffffffffffffffffffffffff82169050919050565b6000611a06826119db565b9050919050565b611a16816119fb565b82525050565b6000602082019050611a316000830184611a0d565b92915050565b611a40816119fb565b8114611a4b57600080fd5b50565b600081359050611a5d81611a37565b92915050565b60008060408385031215611a7a57611a796117f8565b5b6000611a8885828601611a4e565b9250506020611a9985828601611999565b9150509250929050565b611aac81611978565b82525050565b6000606082019050611ac76000830186611aa3565b611ad46020830185611a0d565b8181036040830152611ae6818461191d565b9050949350505050565b600080600060608486031215611b0957611b086117f8565b5b6000611b1786828701611a4e565b9350506020611b2886828701611a4e565b9250506040611b3986828701611999565b9150509250925092565b600080fd5b600080fd5b7f4e487b7100000000000000000000000000000000000000000000000000000000600052604160045260246000fd5b611b858261190c565b810181811067ffffffffffffffff82111715611ba457611ba3611b4d565b5b80604052505050565b6000611bb76117ee565b9050611bc38282611b7c565b919050565b600067ffffffffffffffff821115611be357611be2611b4d565b5b611bec8261190c565b9050602081019050919050565b82818337600083830152505050565b6000611c1b611c1684611bc8565b611bad565b905082815260208101848484011115611c3757611c36611b48565b5b611c42848285611bf9565b509392505050565b600082601f830112611c5f57611c5e611b43565b5b8135611c6f848260208601611c08565b91505092915050565b600060208284031215611c8e57611c8d6117f8565b5b600082013567ffffffffffffffff811115611cac57611cab6117fd565b5b611cb884828501611c4a565b91505092915050565b6000602082019050611cd66000830184611aa3565b92915050565b600060208284031215611cf257611cf16117f8565b5b6000611d0084828501611a4e565b91505092915050565b611d1281611887565b8114611d1d57600080fd5b50565b600081359050611d2f81611d09565b92915050565b60008060408385031215611d4c57611d4b6117f8565b5b6000611d5a85828601611a4e565b9250506020611d6b85828601611d20565b9150509250929050565b600067ffffffffffffffff821115611d9057611d8f611b4d565b5b611d998261190c565b9050602081019050919050565b6000611db9611db484611d75565b611bad565b905082815260208101848484011115611dd557611dd4611b48565b5b611de0848285611bf9565b509392505050565b600082601f830112611dfd57611dfc611b43565b5b8135611e0d848260208601611da6565b91505092915050565b60008060008060808587031215611e3057611e2f6117f8565b5b6000611e3e87828801611a4e565b9450506020611e4f87828801611a4e565b9350506040611e6087828801611999565b925050606085013567ffffffffffffffff811115611e8157611e806117fd565b5b611e8d87828801611de8565b91505092959194509250565b60008060408385031215611eb057611eaf6117f8565b5b6000611ebe85828601611a4e565b9250506020611ecf85828601611a4e565b9150509250929050565b7f4e487b7100000000000000000000000000000000000000000000000000000000600052602260045260246000fd5b60006002820490506001821680611f2057607f821691505b602082108103611f3357611f32611ed9565b5b50919050565b7f4552433732313a20617070726f76656420717565727920666f72206e6f6e657860008201527f697374656e7420746f6b656e0000000000000000000000000000000000000000602082015250565b6000611f95602c836118c8565b9150611fa082611f39565b604082019050919050565b60006020820190508181036000830152611fc481611f88565b9050919050565b7f4552433732313a20617070726f76616c20746f2063757272656e74206f776e6560008201527f7200000000000000000000000000000000000000000000000000000000000000602082015250565b60006120276021836118c8565b915061203282611fcb565b604082019050919050565b600060208201905081810360008301526120568161201a565b9050919050565b7f4552433732313a20617070726f76652063616c6c6572206973206e6f74206f7760008201527f6e6572206e6f7220617070726f76656420666f7220616c6c0000000000000000602082015250565b60006120b96038836118c8565b91506120c48261205d565b604082019050919050565b600060208201905081810360008301526120e8816120ac565b9050919050565b7f4552433732313a207472616e736665722063616c6c6572206973206e6f74206f60008201527f776e6572206e6f7220617070726f766564000000000000000000000000000000602082015250565b600061214b6031836118c8565b9150612156826120ef565b604082019050919050565b6000602082019050818103600083015261217a8161213e565b9050919050565b7f4552433732313a206f776e657220717565727920666f72206e6f6e657869737460008201527f656e7420746f6b656e0000000000000000000000000000000000000000000000602082015250565b60006121dd6029836118c8565b91506121e882612181565b604082019050919050565b6000602082019050818103600083015261220c816121d0565b9050919050565b7f4552433732313a2062616c616e636520717565727920666f7220746865207a6560008201527f726f206164647265737300000000000000000000000000000000000000000000602082015250565b600061226f602a836118c8565b915061227a82612213565b604082019050919050565b6000602082019050818103600083015261229e81612262565b9050919050565b7f4552433732314d657461646174613a2055524920717565727920666f72206e6f60008201527f6e6578697374656e7420746f6b656e0000000000000000000000000000000000602082015250565b6000612301602f836118c8565b915061230c826122a5565b604082019050919050565b60006020820190508181036000830152612330816122f4565b9050919050565b7f4552433732313a206f70657261746f7220717565727920666f72206e6f6e657860008201527f697374656e7420746f6b656e0000000000000000000000000000000000000000602082015250565b6000612393602c836118c8565b915061239e82612337565b604082019050919050565b600060208201905081810360008301526123c281612386565b9050919050565b7f4552433732313a207472616e736665722066726f6d20696e636f72726563742060008201527f6f776e6572000000000000000000000000000000000000000000000000000000602082015250565b60006124256025836118c8565b9150612430826123c9565b604082019050919050565b6000602082019050818103600083015261245481612418565b9050919050565b7f4552433732313a207472616e7366657220746f20746865207a65726f2061646460008201527f7265737300000000000000000000000000000000000000000000000000000000602082015250565b60006124b76024836118c8565b91506124c28261245b565b604082019050919050565b600060208201905081810360008301526124e6816124aa565b9050919050565b7f4e487b7100000000000000000000000000000000000000000000000000000000600052601160045260246000fd5b600061252782611978565b915061253283611978565b925082821015612545576125446124ed565b5b828203905092915050565b600061255b82611978565b915061256683611978565b9250827fffffffffffffffffffffffffffffffffffffffffffffffffffffffffffffffff0382111561259b5761259a6124ed565b5b828201905092915050565b7f4552433732313a20617070726f766520746f2063616c6c657200000000000000600082015250565b60006125dc6019836118c8565b91506125e7826125a6565b602082019050919050565b6000602082019050818103600083015261260b816125cf565b9050919050565b7f4552433732313a207472616e7366657220746f206e6f6e20455243373231526560008201527f63656976657220696d706c656d656e7465720000000000000000000000000000602082015250565b600061266e6032836118c8565b915061267982612612565b604082019050919050565b6000602082019050818103600083015261269d81612661565b9050919050565b600081519050919050565b600082825260208201905092915050565b60006126cb826126a4565b6126d581856126af565b93506126e58185602086016118d9565b6126ee8161190c565b840191505092915050565b600060808201905061270e6000830187611a0d565b61271b6020830186611a0d565b6127286040830185611aa3565b818103606083015261273a81846126c0565b905095945050505050565b6000815190506127548161182e565b92915050565b6000602082840312156127705761276f6117f8565b5b600061277e84828501612745565b91505092915050565b7f4552433732313a206d696e7420746f20746865207a65726f2061646472657373600082015250565b60006127bd6020836118c8565b91506127c882612787565b602082019050919050565b600060208201905081810360008301526127ec816127b0565b9050919050565b7f4552433732313a20746f6b656e20616c7265616479206d696e74656400000000600082015250565b6000612829601c836118c8565b9150612834826127f3565b602082019050919050565b600060208201905081810360008301526128588161281c565b905091905056fea2646970667358221220b598668b3fc68e9f4d961aebe6911f09b0597e2f6074931c9cc168421c3e53d064736f6c634300080d0033",
  "immutableReferences": {},
  "source": "pragma solidity ^0.8.0;\r\n\r\nimport \"../node_modules/@openzeppelin/contracts/token/ERC721/ERC721.sol\";\r\nimport \"../node_modules/@openzeppelin/contracts/utils/Counters.sol\";\r\n\r\ncontract MoraribleToken is ERC721 {\r\n  using Counters for Counters.Counter;\r\n  Counters.Counter private _tokenIds;\r\n\r\n  constructor () ERC721(\"MoraribleToken\", \"MORA\"){}\r\n\r\n  struct Item {\r\n    uint256 id;\r\n    address creator;\r\n    string uri;\r\n  }\r\n\r\n  mapping (uint256 => Item) public Items;\r\n\r\n  function createItem(string memory uri) public returns (uint256){\r\n    _tokenIds.increment();\r\n    uint256 newItemId = _tokenIds.current();\r\n    _safeMint(msg.sender, newItemId);\r\n\r\n    Items[newItemId] = Item(newItemId, msg.sender, uri);\r\n\r\n    return newItemId;\r\n  }\r\n\r\n  function tokenURI(uint256 tokenId) public view override returns (string memory) {\r\n    require(_exists(tokenId), \"ERC721Metadata: URI query for nonexistent token\");\r\n\r\n    return Items[tokenId].uri;\r\n  }\r\n}\r\n\r\n\r\n",
  "sourcePath": "C:\\Users\\sj931\\OneDrive\\Desktop\\Morarible\\contracts\\contracts\\MoraribleToken.sol",
  "compiler": {
    "name": "solc",
    "version": "0.8.13+commit.abaa5c0e.Emscripten.clang"
  },
  "schemaVersion": "3.4.3",
  "updatedAt": "2022-04-02T15:46:19.610Z",
  "networkType": "ethereum",
  "devdoc": {
    "kind": "dev",
    "methods": {
      "approve(address,uint256)": {
        "details": "See {IERC721-approve}."
      },
      "balanceOf(address)": {
        "details": "See {IERC721-balanceOf}."
      },
      "getApproved(uint256)": {
        "details": "See {IERC721-getApproved}."
      },
      "isApprovedForAll(address,address)": {
        "details": "See {IERC721-isApprovedForAll}."
      },
      "name()": {
        "details": "See {IERC721Metadata-name}."
      },
      "ownerOf(uint256)": {
        "details": "See {IERC721-ownerOf}."
      },
      "safeTransferFrom(address,address,uint256)": {
        "details": "See {IERC721-safeTransferFrom}."
      },
      "safeTransferFrom(address,address,uint256,bytes)": {
        "details": "See {IERC721-safeTransferFrom}."
      },
      "setApprovalForAll(address,bool)": {
        "details": "See {IERC721-setApprovalForAll}."
      },
      "supportsInterface(bytes4)": {
        "details": "See {IERC165-supportsInterface}."
      },
      "symbol()": {
        "details": "See {IERC721Metadata-symbol}."
      },
      "tokenURI(uint256)": {
        "details": "See {IERC721Metadata-tokenURI}."
      },
      "transferFrom(address,address,uint256)": {
        "details": "See {IERC721-transferFrom}."
      }
    },
    "version": 1
  },
  "userdoc": {
    "kind": "user",
    "methods": {},
    "version": 1
  }
}